:020000040800F2
:1000000088280020050100087114000889110008E3
:1000100005130008C10700086F1900080000000060
:100020000000000000000000000000008F17000822
:10003000C3070008000000008D1700089117000892
:100040001F0100081F0100081F0100081F01000810
:100050001F0100081F0100081F0100081F01000800
:100060001F0100081F0100081F0100081F010008F0
:100070001F0100081F0100081F0100081F010008E0
:100080001F0100081F0100081F0100081F010008D0
:100090001F0100081F0100081F0100081F010008C0
:1000A0001F0100081F0100081F0100081F010008B0
:1000B0001F0100081F0100081F0100081F010008A0
:1000C0001F0100081F0100081F0100081F01000890
:1000D0001F0100081F0100081F0100081F01000880
:1000E0001F0100081F0100081F010008DFF810D0E1
:1000F00000F016FB0048004785220008AFF300809F
:10010000882800200648804706480047FEE7FEE7AB
:10011000FEE7FEE7FEE7FEE7FEE7FEE7FEE7FEE7B7
:10012000F3170008ED000008202A04DB203A21FA2A
:1001300002F00021704721FA02F3D040C2F1200200
:100140009140084319467047D2B201E000F8012BF4
:10015000491EFBD270470022F6E710B513460A4647
:1001600004461946FFF7F0FF204610BD421C10F868
:10017000011B0029FBD1801A70472DE9FE4F81EA4F
:10018000030404F0004421F0004100944FF0000B00
:1001900023F0004350EA01045ED052EA03045BD02E
:1001A000C3F30A54C1F30A552C44A4F2F334019466
:1001B000A0FB0254C1F3130141F48011C3F31303F4
:1001C00043F4801301FB024400FB034E840A970AA8
:1001D00044EA815447EA8357A4FB076802958D0AD5
:1001E00005FB07854FEA932C04FB0C542705029D61
:1001F0004FEA065847EA1637B5EB08056EEB070CD1
:10020000870E920E47EA811742EA8312A7FB02018A
:10021000B6EB0B0164EB00042B0D43EA0C335E18C4
:1002200044EB1C50DA465146E7FB0201C5F31304C8
:100230004FEA0B3343EA14534FEA0432019C43EA7A
:100240000603A4F10C040294009CCDE900B400F074
:10025000D3F803B0BDE8F08F00200146F9E70EB5F2
:10026000C10F80EAE0700844CA07002140F233431E
:100270008DE80E000A460B4600F0BEF803B000BD44
:1002800000F0004230F000400AD0C10D01F560716D
:10029000C0F3160042EA0151C208400711437047FB
:1002A00000200146704701F0004330B421F00041C6
:1002B00050EA010206D00A0DA2F56072C1F31301E3
:1002C000002A02DC30BC00207047440F44EAC1041D
:1002D000C100E01830BC00EBC25000F047B830B5A8
:1002E0000B46014600202022012409E021FA02F5F4
:1002F0009D4205D303FA02F5491B04FA02F528448E
:10030000151EA2F10102F1DC30BD2DE9F05F0546BA
:10031000002092469B4688460646814640241BE0C4
:100320002846414647462246FFF7FEFE53465A46B8
:10033000C01A914110D311461846224600F002FA25
:100340002D1A67EB01084F4622460120002100F0DC
:10035000F9F917EB00094E41201EA4F10104DFDC7E
:10036000484631462A464346BDE8F09F0029A8BFCB
:100370007047401C490008BF20F00100704710B4CE
:10038000B0FA80FC00FA0CF050EA010404BF10BC83
:10039000704749B1CCF1200421FA04F411FA0CF1B0
:1003A00018BF012121430843A3EB0C01CB1D4FEAE9
:1003B00000614FEA102042BF002010BC704700EBE4
:1003C000C35010440029A4BF10BC7047401C490012
:1003D00008BF20F0010010BC704710B5141E73F167
:1003E000000408DA401C41F1000192185B411A43F5
:1003F00001D120F0010010BD2DE9F04D92469B4641
:1004000011B1B1FA81F202E0B0FA80F220329046E6
:1004100000F098F904460F4640EA0A0041EA0B0151
:1004200053465A46084313D0114653EA010019D0E7
:10043000C8F140025046FFF777FE05460E4650468B
:100440005946424600F07EF9084305D0012004E0F9
:1004500020463946BDE8F08D0020054346EAE076A7
:100460002C4337430A986305E40AA0EB08000022F6
:10047000FD0A44EA47540A3002D500200146E9E764
:10048000010510196941DDE9084500196941BDE818
:10049000F04DA2E72DE9FE4F804681EA0300C00F30
:1004A0000C46009021F0004123F00045B8EB02001B
:1004B000A94105D24046214690461C460B460246BD
:1004C00023F00040104347D0270DC7F30A00C3F3C1
:1004D0000A510290401A019040286BDAC3F31300CE
:1004E00040F4801B0098924620B10023D2EB030A0F
:1004F00063EB0B0B01985946C0F14002504600F0E7
:1005000021F906460D4650465946019A00F029F950
:1005100010EB08006141002487EA115284EAE77376
:100520001A4340D0009A62B3019A012A4FEA075257
:1005300015DC001B61EB02014FF0004202EA07529A
:10054000CDE90042001C41F5801132462B46FFF7F1
:1005500053FF03B0BDE8F08F40462146F9E7001B8A
:1005600061EB0201001C41F5801300185B4120186B
:10057000A2F5001747EB030140EAD570B6196D41AB
:1005800011E06D084FEA360645EAC0754FEA07529A
:10059000001B61EB0201001C41F5801149084FEA84
:1005A00030000019514132462B4603B0BDE8F04FF0
:1005B000FFF713BF0098012240000023D0EB020296
:1005C00063EBE073009821464FEAE074B8EB00005B
:1005D00061EB0401E9E783F000435BE781F0004150
:1005E00058E72DE9F04D81EA030404F0004B21F0B7
:1005F000004514464FF0000A23F0004150EA05027E
:1006000020D054EA01021DD0C5F30A570246C5F3B3
:100610001303C1F31300C1F30A5640F4801543F4E9
:100620008013A7EB0608101BD64608F2FD3873EBC3
:10063000050002D308F1010801E092185B41B8F10E
:10064000000F03DA00200146BDE8F08D00204FF4D2
:100650008011064684460EE0171B73EB050705D391
:10066000121B63EB050306434CEA010C49084FEAF1
:10067000300092185B4150EA0107EDD152EA0300C5
:1006800012D082EA040083EA0501084305D0101B5A
:10069000AB4106D20122002306E000224FF00043C6
:1006A00002E06FF0010253101AEB06004CEB085108
:1006B00010EB0A0041EB0B01BDE8F04DFFF78DBEDA
:1006C000C1F30A52C1F3130140F2FF3341F4801128
:1006D0009A4202DA00200146704740F233439A42C0
:1006E000A2F2334202DC5242FFF71EBD00F02AB8EC
:1006F00030B5041E71F1000404DB4FF000444042A9
:1007000064EB0101141E73F1000405DB1C464FF07D
:100710000043524263EB0403994208BF904230BD4C
:10072000064C074D06E0E06840F0010394E807003E
:1007300098471034AC42F6D3FFF7DCFCD42B00080A
:10074000F42B0008202A04DB203A00FA02F10020F2
:1007500070479140C2F1200320FA03F319439040FF
:100760007047202A06DBCB17203A41FA02F043EA11
:10077000E07306E041FA02F3D040C2F1200291405A
:1007800008431946704730B58C1810F8012B12F049
:100790000F0301D110F8013B120906D110F8012B0B
:1007A00003E010F8015B01F8015B5B1EF9D101E089
:1007B00001F8013B521EFBD1A142E6D3002030BD1F
:1007C000FEE7704700B502464FF47A7302E0184620
:1007D00000F003F8521EFAD200BD00EBC000C100C9
:1007E0004FF0E02041610021816105210161016933
:1007F000C903FCD504210161704772B6FEE7000011
:100800002DE9F84FDFF8B8910024A9F1040B234635
:100810000F2709F1040AABF1040EC9E00125A54038
:100820002A40AA427DD1674ED1F804C0ACEB06083D
:10083000B44532D014DCBCF1030F3AD009DCBCF172
:10084000000F2AD0BCF1010F1CD0BCF1020F31D136
:100850001DE0BCF1110F17D0BCF1120F2AD119E025
:10086000B8F5881F19D006DCB8F5803F15D0B8F56B
:10087000801F1FD111E0B8F5001F0ED0B8F5041F7E
:1008800018D10AE0CB6815E0CB681B1D12E0CB68DD
:1008900008330FE0CB680C330CE08B682BB1012BD5
:1008A0004FF0080303D0456104E0042302E0056132
:1008B00000E00023FF2A01D8064601E000F104060B
:1008C0004FEA840501D9A5F12005D6F8008007FA82
:1008D00005FC28EA0C0803FA05F548EA0508C6F8FD
:1008E00000804D68ED0062D5374DAE6946F00106D7
:1008F000AE61AD6924F0030605F001050095334DA6
:1009000006EB050CDCF80850A607360F07FA06F8C8
:1009100025EA0805DFF8B880404503D14FF000080C
:1009200017E044E0DFF8AC80404502D14FF0010809
:100930000FE0DFF8A480404502D14FF0020808E044
:10094000DFF89880404502D14FF0030801E04FF0F6
:10095000040808FA06F848EA0508CCF808804D684B
:10096000D9F80060ED024D4601D5164300E09643EC
:100970002E604D68DAF80060AD02554601D5164389
:1009800000E096432E604D68DBF80060AD035D46E5
:1009900001D5164300E096432E604D68DEF80060F6
:1009A000ED03754601D5164300E096432E60641CA6
:1009B0000D682A46E5407FF431AFBDE8F88F0000AE
:1009C0000804014000001110001002400000014026
:1009D00000080140000C01400010014000140140DB
:1009E0008068084000D0012070470AB1016170475B
:1009F0000904FBE7014880687047000008240020D4
:100A00000248816802781144816070470824002000
:100A1000074810B5016841F010010160032000F0A3
:100A200067F80F2000F006F800F024F8002010BD51
:100A30000020024070B50D4D04464FF47A712878BD
:100A4000B1FBF0F00A490968B1FBF0F000F0CEFA12
:100A500048B9102C07D200222146501E00F028F879
:100A600000206C6070BD012070BD000008240020D3
:100A7000142400200C4808B5816941F0010181610E
:100A8000816901F001010091C16941F08051C161AA
:100A9000C06900F0805000900448416821F0E06196
:100AA00041F00071416008BD0010024000000140AB
:100AB000F0B40E4B1B680C46C3F30223C3F10705C9
:100AC000042D00D90425191D072901D2002300E0B7
:100AD000DB1E012606FA05F1491E214099409E4081
:100AE000761E16403143F0BC00F05CBF0CED00E018
:100AF000064900F0070208684FF6FF03184040EA75
:100B00000220034A10430860704700000CED00E02B
:100B10000000FA052DE9F0470F46050061D0434E6D
:100B2000306800F00700B84209D2306820F00700B2
:100B300038433060306800F00700B84251D128686F
:100B40003B4C810712D5400703D5606840F4E06054
:100B500060602878000703D5606840F460506060EA
:100B60006068A96820F0F000084360602878C0073A
:100B700028D06868012810D02168022810D0890781
:100B800000292EDA616821F0030101436160FFF75B
:100B900031FF804641F288390DE021688903EFE793
:100BA0008901EDE7FFF726FFA0EB0801494502D9CF
:100BB0000320BDE8F0876068696800F00C00B0EBC6
:100BC000810FEFD1306800F00700B8420BD93068D0
:100BD00020F0070038433060306800F00700B8426A
:100BE00001D00120E5E72878400705D56068E9686D
:100BF00020F4E060084360602878000706D560684C
:100C0000296920F4605040EAC100606000F038F8C3
:100C10006168084AC1F30311515CC8400649086085
:100C200006480068FFF706FF0020C2E700200240E8
:100C300000100240BA2B0008142400200C240020CD
:100C40000448054900684968044AC1F30221515C1F
:100C5000C84070471424002000100240CA2B00082E
:100C60000448054900684968044AC1F3C221515C3F
:100C7000C84070471424002000100240CA2B00080E
:100C80000E4A51680E4801F00C03042B11D0082BBA
:100C90000FD10C48C1F38343C903C05C0AD5516826
:100CA000084AC1F34041921E515C054A5043B0FBD3
:100CB000F1F07047044948437047000000100240BB
:100CC00000127A00AA2B000800093D002DE9F84F18
:100CD000040070D02078C04DC00749D06868C0F3C8
:100CE0008100012807D06868C0F38100022809D17B
:100CF0006868C00306D52868800339D56068002875
:100D0000E7D035E06068B0F5803F0BD010B1B0F5AA
:100D1000A02F11D0286820F480302860286820F4A3
:100D2000802002E0286840F480302860606890B13C
:100D3000FFF760FE06460AE0286840F4802028603D
:100D4000F0E700BFFFF756FE801B642873D82868C1
:100D50008003F7D50CE0FFF74DFE064605E000BF27
:100D6000FFF748FE801B6428F0D828688003F7D47A
:100D700020789A4E80074FF001094FF0000839D5CE
:100D8000686810F00C0F07D06868C0F38100022873
:100D900009D16868C00306D42868800714D5206983
:100DA000012808D110E02069B0B1C6F80090FFF723
:100DB00021FE074605E00AE1FFF71CFEC01B0228E2
:100DC000C4D828688007F7D52868616920F0F80042
:100DD00040EAC10028600DE0C6F80080FFF70AFE77
:100DE000074604E0FFF706FEC01B022823D8286848
:100DF0008007F7D4207800072CD57948A169D9B1AC
:100E0000C0F80090FFF7F6FD074604E0FFF7F2FD9B
:100E1000C01B02280FD8686A8007F7D571484FF4C5
:100E2000FA510068B0FBF1F0009000BF0098411E3D
:100E30000091FAD20EE080E0C0F80080FFF7DAFD02
:100E4000074604E0FFF7D6FDC01B022875D8686A84
:100E50008007F7D42078400760D5E8690027C000F4
:100E600008D4E86940F08050E861E869012700F0A3
:100E7000805000905C480168C90513D4016883461E
:100E800041F480710160FFF7B5FD824606E000BFC6
:100E9000FFF7B0FDA0EB0A0064284ED8DBF8000095
:100EA000C005F5D5E06801280AD008B1052813D09F
:100EB000286A20F001002862286A20F0040002E07D
:100EC000286A40F001002862E06841F2883B98B14E
:100ED000FFF790FD82460BE0286A40F0040028628C
:100EE000EEE700BFFFF786FDA0EB0A0159455AD88F
:100EF000286A8007F6D50CE0FFF77CFD824605E006
:100F0000FFF778FDA0EB0A0159454CD8286A800705
:100F1000F6D41FB1E86920F08050E861E06988B339
:100F20006968C1F38101022944D00228C6F86080B3
:100F300004D0FFF75FFD044638E034E0FFF75AFDC8
:100F4000074604E0FFF756FDC01B02282BD828688F
:100F50008001F7D4206AB0F5803F05D16868A168A8
:100F600020F4003008436860D4E908010843696848
:100F700021F4741108436860C6F86090FFF73AFDE9
:100F8000044606E025E000BFFFF734FD001B022801
:100F900009D828688001F7D51BE000BFFFF72AFDBC
:100FA000001B022802D90320BDE8F88F28688001C1
:100FB000F4D40EE00128F7D06868226A00F480318A
:100FC000914204D1616A00F47010884201D001207E
:100FD000EAE70020E8E7000000100240000042427B
:100FE00080044242142400200070004010B5401ECE
:100FF000B0F1807F01D3012010BD4FF0E02460618B
:101000000F21601700F0CEFC0020A06107202061B6
:10101000002010BD70B5040004D094F841000025F4
:1010200010B106E0012070BD84F84050204600F069
:1010300023F8242084F841002068C16821F400517D
:10104000C160204600F0FEFB2068016921F4904158
:1010500001612068416921F02A0141612068C1686D
:1010600041F40051C1606564202084F8410084F897
:1010700042006563002070BD30B585B00024009447
:1010800001940294039400681449884224D11448BE
:10109000816941F480418161816901F48041049159
:1010A000816941F00401816180690E4D00F0040006
:1010B00004904FF4007000900220019003200390F0
:1010C00069462846FFF79CFB2815CDE900046946D0
:1010D00028460294FFF794FB05B030BD003801406C
:1010E00000100240000801402DE9F843044690F842
:1010F0004100984616460D46202802D00220BDE841
:10110000F88385B17EB100206064212084F841001D
:10111000FFF770FCA6848146E684A0682027B0F51E
:10112000805F02D003E00120E9E7206910B12E467C
:1011300000250EE000260CE08021204600F0DEFBBA
:10114000A8B9C6B116F8010B21684860E08C401EB2
:10115000E084E08C4B464FF00002CDF80080002880
:10116000EAD14FF04001204600F0C8FB40B184F8BE
:1011700041700320C3E735F8020BC0F30800E3E732
:1011800084F841700020BAE7FEE700F0BDB870B502
:10119000044600F035F9B42000F01CF900F0E6F840
:1011A000204600F017F900F0E1F800F029F9B52029
:1011B00000F010F900F0DAF800F0E7F8054600F06A
:1011C000D5F800F0E2F80446012000F0F8F800F04D
:1011D00026F905EB042080B270BD000010B5062092
:1011E000FFF7D5FF064901EB4000FFF738F8054A45
:1011F000054BFEF7C2FFFFF756F80449086010BD23
:101200004D95FFFF7B14AE47E17A843F000000203C
:1012100010B50720FFF7BBFF064901EB4000FFF7C1
:101220001EF8054A054BFEF7A8FFFFF73CF80449F6
:10123000486010BD4D95FFFF7B14AE47E17A843FB7
:101240000000002070B586B000241D480094019471
:1012500002940394816941F020018161816901F068
:1012600020010491816941F004018161816901F0EB
:1012700004010491816941F0080181618069114E86
:1012800000F008004FF440750490002229463046D3
:10129000FFF7ABFB0620CDE9000469460A4802943B
:1012A000FFF7AEFA1120CDE9005001200290022094
:1012B000039069463046FFF7A3FA06B070BD000000
:1012C00000100240000C0140000801400C4810B51D
:1012D0000A4901604FF416414160002181600C22EF
:1012E000C160C0E904128161C161FFF793FE00286B
:1012F00003D0BDE81040FFF780BA10BD00380140B0
:1013000040240020FEE700000F4810B5816986B038
:1013100041F00801816180690C4C00F008000490E4
:1013200000200290C0200090112001900320039023
:1013300069462046FFF764FA0122C0212046FFF7E4
:1013400054FB06B010BD000000100240000C01402C
:1013500010B580210448FFF743FB04460A20FFF73D
:101360003CFA204610BD0000000C014010B50120E1
:1013700000F070F8012000F05FF8FFF7E9FF044685
:10138000002000F059F8204610BD70B5002501205E
:1013900000F060F800248026012000F04DF8FFF7EF
:1013A000D7FF012802D126FA04F00543002000F0FF
:1013B00043F8641CE4B2082CEED3284670BD10B587
:1013C00000F048F8012000F037F8BDE81040002098
:1013D00000F032B870B500240646802525FA04F0E6
:1013E000304000D0012000F035F8012000F024F852
:1013F000002000F021F8641CE4B2082CEED370BD8C
:1014000010B5012000F026F8012000F015F80020AA
:1014100000F020F8BDE81040002000F00DB810B535
:10142000002000F017F8012000F006F8BDE8104099
:10143000012000F00FB8000010B50246402104481A
:10144000FFF7D3FABDE810400A20FFF7C6B9000045
:10145000000C014010B5024680210448FFF7C5FA90
:10146000BDE810400A20FFF7B8B90000000C0140A9
:10147000FEE770B500240021204600F007F90025A2
:10148000002000F072F96D1CEDB2802DF8D3641CC1
:10149000E4B2082CEFD370BD2DE9FF5F9A46904669
:1014A0000026DDF83CB01FE000270BFB06F9019C8D
:1014B00013E02046009900F0E9F8009D09E010983B
:1014C000012138447F1C19F8000000F038F96D1C28
:1014D000EDB24545F3D9641CE4B25445E9D9502036
:1014E000FFF770F9761CF6B20E988642DCD3BDE8A1
:1014F000FF9F000010B5064C012211022046FFF7A5
:1015000074FA20460122BDE810405102FFF76DBA7F
:10151000000C01402DE9F047164D002407464FF01E
:1015200080084FF40079AE1528FA04F0384201D053
:10153000012200E0002249462846FFF756FA012220
:1015400031462846FFF751FA002231462846FFF778
:101550004CFA641CE4B2082CE6D30122314628463A
:10156000FFF743FA31462846BDE8F0470022FFF76F
:101570003CBA0000000C014070B501220B4D540232
:1015800021462846FFF731FA012216023146284645
:10159000FFF72BFA002221462846FFF726FA3146AC
:1015A0002846BDE870400022FFF71FBA000C01403A
:1015B00070B50A4D4FF40074002221462846FFF70B
:1015C00014FA012211022846FFF70FFA2146284695
:1015D000BDE870400122FFF708BA0000000C01408E
:1015E00010B500204FF47A720021491C9142FCD3BF
:1015F000401C9042F8D3FFF77DFFAE2000F0A4F826
:10160000D52000F0A1F8802000F09EF8A82000F07E
:101610009BF83F2000F098F8D32000F095F80020C8
:1016200000F092F8402000F08FF8A12000F08CF834
:10163000C82000F089F8DA2000F086F8122000F0C7
:1016400083F8812000F080F8CF2000F07DF8D920C9
:1016500000F07AF8F12000F077F8DB2000F074F861
:10166000302000F071F8A42000F06EF8A62000F001
:101670006BF88D2000F068F8142000F065F8AF20BA
:1016800000F062F8BDE81040FFF7F3BE10B50C465D
:1016900040F0B00000F058F8102040EA141000F0BC
:1016A00053F804F00F00BDE8104000F04DB8000002
:1016B0002DE9F0410746CE004000083E801E154649
:1016C0004FF0FF38F1B2C0B2FFF7E0FF114800243D
:1016D00000EB05152819A0F5805090F8000E00F0D9
:1016E00044F8641CE4B2082CF4D308EB4700F1B2D0
:1016F000C0B2FFF7CBFF00242819A0F5805090F866
:10170000080E00F032F8641CE4B2082CF4D3BDE8F3
:10171000F0810000B82500082DE9F04115460E467D
:101720000746002406E03019C1B23846FFF7C0FF73
:10173000641CE4B22A5D002AF5D1BDE8F08109B14C
:1017400000F013B8AFF3008010B50446FFF714FFA4
:101750007820FFF7DFFE0020FFF7DCFE2046FFF7D2
:10176000D9FEBDE81040FFF723BF10B50446FFF7D0
:1017700003FF7820FFF7CEFE4020FFF7CBFE204688
:10178000FFF7C8FEBDE81040FFF712BF7047704773
:10179000FFF736B930B58FB028216846FEF7DBFC7D
:1017A00014210AA8FEF7D7FC01210804CDE9001096
:1017B0000024029402250491CDE907504FF4E01073
:1017C00009906846FFF782FA08B172B6FEE70F206B
:1017D000CDE90A054FF48060CDE90C4002210AA84A
:1017E0000E94FFF797F9002801D072B6FEE70FB00C
:1017F00030BD704701680C3151E8002F22F490721F
:1018000041E80023002BF5D10168143151E8002F85
:1018100022F0010241E80023002BF5D1016B0129E0
:1018200009D101680C3151E8002F22F0100241E883
:101830000023002BF5D1202180F842100021016304
:101840007047000070B5044600680169E26821F441
:101850004051114301612169A0680843616908434F
:101860002168CA6841F20C639A430243CA60206847
:101870004169A26921F44071114341611E49206808
:10188000884202D1FFF7ECF901E0FFF7D9F900EB4C
:10189000C00101EB0012606864218000B2FBF0F32C
:1018A000B3FBF1F36FF018067343B2FBF0F5B2FB34
:1018B000F0F605EB8305322303EB0515B5FBF1F5D7
:1018C000B6FBF1F605F0F00505EB0615B2FBF0F6F8
:1018D000B2FBF0F0B0FBF1F06FF01802504306EBF2
:1018E000800003EB0010B0FBF1F0216800F00F0066
:1018F0002844886070BD0000003801402DE9F8439D
:10190000984617460D460446089E24E0701C22D0D7
:10191000FFF770F8A0EB0800B0421AD8CEB12068EB
:10192000C168490717D5802D15D0402D13D0016807
:10193000C94309070FD4016800254068009020467C
:10194000FFF758FF0820606484F840500120BDE88C
:10195000F8830320FBE72068006835EA000004D024
:101960000020B842D2D00020F1E70120F9E7FEE7DD
:101970000FB47CB50C0009AD01D0611E00E0002160
:10198000CDE90001064B6A462946089800F0ECF8BC
:10199000002C02D0009A002111707CBC5DF814FB71
:1019A0006F2200080907090E002804DB00F1E0207F
:1019B00080F80014704700F00F0000F1E02080F87C
:1019C000141D704702E008C8121F08C1002AFAD18E
:1019D00070477047002001E001C1121F002AFBD1AF
:1019E000704700002DE9FF5F82B00021DDE904307F
:1019F000020DDDF840B0034318D044F61050A2F2B7
:101A0000FF3242431514119801281FD0A5EB0B009B
:101A1000401C5FEA000A4FF000064E4FDFF8389195
:101A2000B046504615D5CAF1000413E011980124C0
:101A30004AA3012801D16FEA0B010298119AC0E96B
:101A40000031C0E9024206B0BDE8F09FCBF10000D2
:101A5000DFE704460021404A491842EB0450CDE933
:101A6000001012E0E00707D032463B4640464946A8
:101A7000FEF783FB8046894632463B4610461946B0
:101A8000FEF77BFB06460F466410002CEAD1DDE929
:101A90000401DDE90023BAF1000F06DAFEF76DFB61
:101AA00042464B46FEF769FB05E0FEF79AFD4246CB
:101AB0004B46FEF796FD04460E460022284BFEF7E5
:101AC00017FE03D84FF0FF30014607E00022254BF8
:101AD00020463146FEF7DEFCFEF7F2FD102409E059
:101AE000002C0ADB0A220023FEF70FFC039B303296
:101AF0001A55641E50EA0102F2D1641C039AC4F123
:101B000011031444119A012A03D0012208430DD174
:101B10000AE0084304D000204FF0110B119072E747
:101B2000A3EB0B056D1E0DE05B4504DD4FF00002DD
:101B300005F1010504E003DA4FF00002A5F101050B
:101B4000002AECD002981199C0E90231C0E90045A1
:101B500079E70000000014400000F03F3000000072
:101B60000000F0430000E03F2DE9FF4F95B09A469A
:101B7000884606460025EEE1252877D10024274631
:101B8000F94A0121039400E0044316F8013F203B89
:101B900001FA03F01042F7D130782A2811D06FF003
:101BA0002F033078A0F13002092A16D8039A44F0A6
:101BB000020402EB820203EB42021044761C039003
:101BC000EFE758F8042B0392002A03DA504244F45A
:101BD0000054039044F00204761C30782E2816D16D
:101BE00016F8010F44F004042A280DD06FF02F02DC
:101BF0003078A0F13003092B09D807EB870302EBFB
:101C00004303C718761CF3E758F8047B761C30783A
:101C10006C280FD006DC4C2817D068280DD06A2815
:101C200014D104E0742810D07A280FD10DE044F4C8
:101C300000140AE044F4801401E044F44014727883
:101C4000824202D104F58014761C761C3078662816
:101C50000BD013DC582877D009DC002875D0452834
:101C6000F6D04628F4D047281AD193E118E063282B
:101C700035D0642879D0652812D18BE1702873D0D3
:101C800008DC6728F1D069286FD06E280DD06F2846
:101C900006D1ACE073282CD0752874D0782853D0A6
:101CA0005246179990476D1C54E1C4F30250022824
:101CB00009D003280DD0D8F8001004280DD00D60ED
:101CC00008F1040846E1D8F80010EA17C1E900520B
:101CD000F6E7D8F800100D80F2E70D70F0E718F87D
:101CE000041B8DF8001000208DF80100EB46012048
:101CF00003E058F804BB4FF0FF3061074FF00001DC
:101D000002D40DE009F101018946B9420FDA81459B
:101D1000F8DB1BF809100029F4D108E009F10101F2
:101D200089468142FADB1BF809100029F6D1039895
:101D30005346A0EB090721463846179A00F080FA6F
:101D4000284400EB090507E044E008E10DE01BF83A
:101D5000010B524617999047B9F10109F7D2534642
:101D600021463846179AF2E039E00A21C4F30252BC
:101D70004FF0000B0091022A06D058F8040BC1174F
:101D8000032A09D00AE023E008F1070020F0070247
:101D9000F2E80201904605E000B2C117042A01D121
:101DA00040B2C117002906DA0A460021404261EB21
:101DB00002012D2202E0220504D52B228DF80420F9
:101DC000012203E0E20701D02022F7E7914657E025
:101DD0000A2100E010214FF0000B00910BE01021D0
:101DE0004FF0000B44F004040827009103E00820A2
:101DF0004FF0000B0090C4F30252022A05D058F8AD
:101E0000040B0021032A08D008E008F1070020F0A5
:101E10000702F2E80201904603E080B2042A00D1F2
:101E2000C0B24FF0000922072AD53278702A07D0B5
:101E3000DDF800C08CF0100C5CEA0B0C05D00EE055
:101E400040228DF80420012208E050EA010306D068
:101E500030238DF804308DF8052002229146009B36
:101E600083F0080353EA0B030AD150EA010201D1BF
:101E7000620705D530228DF804204FF001097F1E3E
:101E80003278582A04D039A20C920CAA02920BE0A4
:101E90003BA2F9E75B46009AFEF737FA0C9B9B5C86
:101EA000029A521E0292137050EA0102F2D1029875
:101EB00004A9081A00F1200B600702D524F480342D
:101EC00000E001275F4502DDA7EB0B0000E00020EA
:101ED00000EB0B01009003984944401A0390E00383
:101EE00006D453462146179A039800F0A9F90544F1
:101EF000002706E001A85246C05D179990476D1C67
:101F00007F1C4F45F6DBE0030CD553462146179A5C
:101F1000039800F095F9054404E0302052461799E3
:101F200090476D1C0099481E00900029F5DC08E0E0
:101F30000298029952460078491C029117999047DD
:101F40006D1CBBF10001ABF1010BF1DC5BE100F0BA
:101F500065F90544761C307800287FF40DAE19B081
:101F60002846BDE8F08F00000928010030313233E7
:101F700034353637383961626364656600000000C5
:101F800030313233343536373839414243444546AF
:101F900000000000600700D4062708F1070020F0C9
:101FA0000700F0E80223804603F0004C5FEA0C00D3
:101FB00001D097A009E0200501D596A005E0E00733
:101FC00001D095A001E0AFF24C001390307823F0DF
:101FD000004365280CD006DC452809D046281DD0D2
:101FE00047287FD13BE0662818D067287AD136E0B1
:101FF0000021112F01DB112000E0781CCDE9000148
:1020000004A90CA8FFF7EEFCDDE90D010C9A4FF0D6
:10201000000B07F10109109200914EE04FF00040D3
:102020000097CDE9011004A90CA8FFF7DBFCDDE95E
:102030000D020C9B0F994FF0000B914610930092EC
:1020400011B9791C00EB0109B7EB090003D4C0F109
:10205000FF3B07F10109A9EB0700019042E0012FC6
:1020600000DA01270021112F01DD112000E03846A0
:10207000CDE9000104A90CA8FFF7B4FCDDE90D01CE
:102080000C9A00914FF0000BB946109221070FD423
:10209000009A4A4503DA914601E0A9F10109B9F134
:1020A000010F05DD109AA9F10101515C3029F4D02E
:1020B000B84202DA10F1040F03DA0121CDE9011070
:1020C00010E0002803DC8344A9EB000102E0411C7E
:1020D000494500DD8946A0EB0B00401C01904FF004
:1020E00000400290200705D40198484502DB4FF0DC
:1020F000FF30019000208DF84B0002980DF14B0746
:10210000B0F1004F25D002200C902B200D900298AA
:1021100000280CDA404202902D200D9007E00A21A1
:102120000298FEF7DCF83031029007F8011D0C9997
:10213000481E0C900029F2DC02980028EFD1791E8D
:102140000D980870307800F0200040F0450007F846
:10215000020D11A8C01BC01D02901398007800B199
:10216000012000EB0901019801EBE07102980144A4
:102170000398401A401E0390E00306D453462146BC
:10218000179A039800F05CF805441398007818B18A
:102190005246179990476D1CE00323D553462146BC
:1021A000179A039800F04CF805441BE0BBF1000FB0
:1021B00007DB0098584504DD1098179910F80B00BC
:1021C00001E0179930205246904701980BF1010B1E
:1021D000401E05F10105019004D12E2052461799A9
:1021E00090476D1CB9F10001A9F10109DEDC05E0A1
:1021F00017F8010B5246179990476D1C0299481E1B
:1022000002900029F4DC53462146179A03989EE673
:102210002D0000002B000000200000002DE9F041FF
:10222000044600251E461746880404D405E03946B6
:102230002020B0476D1C641EF9D52846BDE8F0810A
:102240002DE9F041044600251E469046C80301D5FD
:10225000302700E02027880404D505E041463846B1
:10226000B0476D1C641EF9D52846BDE8F0814A6868
:10227000002A06D00A68531C0B6010704868401E84
:10228000486070470EB5FEF7C3FBFFF783FAFEF711
:10229000D9FFFFF71BF84FF47A70FEF793FAFEF7B9
:1022A00074FFFFF79DF91420FEF78CFA00258F4E7E
:1022B0002C464FF400774FF01208CDF80080CDE99E
:1022C00001760823602200212020FFF7E5F8642032
:1022D000FEF778FA641C022CEFDBFFF7CAF8012145
:1022E00083A20846FFF718FA84A201210220FFF713
:1022F00013FA874C874E02212046FEF771FBF8B98E
:102300001420FEF75FFA02212046FEF769FBB8B9F8
:102310000125FFF7AEF801217FA20846FFF7FCF97F
:1023200081A201210220FFF7F7F982A201210320F7
:10233000FFF7F2F902212046FEF752FB0028F9D000
:1023400004212046FEF74CFBF8B91420FEF73AFAB8
:1023500004212046FEF744FBB8B90225FFF789F8AF
:10236000012176A20846FFF7D7F978A201210220C1
:10237000FFF7D2F904212046FEF732FB0028F9D0FE
:1023800066E0012D07D0022D7ED03220FEF71AFA2A
:10239000002DB0D0F5E702212046FEF721FB0028F2
:1023A00049D11420FEF70EFA02212046FEF718FB51
:1023B000002840D1FEF712FF1420FEF703FAFEF7C3
:1023C00027FF1420FEF7FEF9644837680068FDF720
:1023D00057FF634A634BFDF7D0FECDE9000162A2CF
:1023E00014216448FFF7C4FA3846FDF749FF624AF2
:1023F000624BFDF7C2FECDE900015E4860A21421E8
:102400001430FFF7B5FAFFF734F801215FA2084650
:10241000FFF782F9574A01210220FFF77DF9554A5B
:10242000012114320320FFF777F902212046FEF73D
:10243000D7FA0028F9D004212046FEF7D1FA38B99E
:102440001420FEF7BFF904212046FEF7C9FA18B19F
:102450003220FEF7B7F994E70025FFF70AF80121CB
:1024600023A20846FFF758F924A201210220FFF712
:1024700053F904212046FEF7B3FA0028F9D03220A0
:10248000FEF7A0F937E7FFE74FF0FF344FF4FA7596
:10249000FEF7EFFFFEF7A2FE1420FEF793F9FEF71A
:1024A000B7FE1420FEF78EF93068FDF7E9FECDE99E
:1024B0000001304838A214211430FFF759FA2D4892
:1024C0001430FDF753FE2B4982B2234614313648AF
:1024D000FEF70AFE012135A20846FFF71DF928463E
:1024E000FEF770F93220FEF76DF9D1E70800002001
:1024F000313A4F4C4544204D6F646500323A426C8E
:102500007565746F6F7468204D6F6465000000001E
:1025100000080140040000204F4C4544204D6F64EA
:102520006520526561647900313A526561642074B6
:10253000656D7000323A4D656E750000426C7565D0
:10254000746F6F7468204D6F6465000053656E642E
:10255000696E6720646174612E2E2E0000000020D9
:1025600048E17A14AE47F13F416D623A20252E32A0
:102570006620430018240020CDCCCCCCCCCCF03F3E
:102580004F626A3A20252E3266204300526561640C
:10259000696E673A0000000074656D703A20252E60
:1025A000326620430D0A000040240020446174611B
:1025B0002053656E74210000000000000000000040
:1025C0000000000000000000000000F80000000013
:1025D000000000333000000000100C06100C060054
:1025E000000000000000000040C07840C0784000BB
:1025F000043F04043F040400007088FC083000001D
:10260000001820FF211E0000F008F000E018000074
:1026100000211C031E211E0000F00888700000002D
:102620001E2123241927211010160E00000000007F
:102630000000000000000000000000E0180402009C
:10264000000000071820400000020418E00000000D
:102650000040201807000000404080F0804040000B
:102660000202010F01020200000000F00000000061
:102670000101011F01010100000000000000000035
:1026800080B07000000000000000000000000000AA
:102690000001010101010101000000000000000033
:1026A00000303000000000000000000080601804CE
:1026B000006018060100000000E010080810E000AB
:1026C000000F102020100F00001010F80000000074
:1026D0000020203F202000000070080808887000BB
:1026E000003028242221300000300888884830003B
:1026F0000018202020110E000000C02010F800005B
:1027000000070424243F240000F8088888080800F3
:102710000019212020110E0000E010888818000008
:10272000000F112020110E0000380808C8380800DA
:102730000000003F0000000000708808088870005A
:10274000001C222121221C0000E010080810E000DB
:102750000000312222110F00000000C0C000000064
:102760000000003030000000000000800000000089
:102770000000806000000000000080402010080081
:10278000000102040810200040404040404040004A
:102790000404040404040400000810204080000025
:1027A0000020100804020100007048080808F0002A
:1027B0000000003036010000C030C828E810E000FA
:1027C0000718272423140B000000C038E000000085
:1027D000203C23020227382008F8888888700000EF
:1027E000203F202020110E00C030080808083800C3
:1027F000071820202010080008F808080810E0003A
:10280000203F202020100F0008F88888E8081000DA
:10281000203F20202320180008F88888E8081000AE
:10282000203F200003000000C030080808380000E6
:1028300007182020221E020008F808000008F808E7
:10284000203F210101213F20000808F8080800006E
:102850000020203F2020000000000808F8080800A1
:10286000C08080807F00000008F888C02818080019
:10287000203F20012638200008F808000000000052
:10288000203F20202020300008F8F800F8F8080049
:10289000203F003F003F200008F830C00008F80843
:1028A000203F200007183F00E01008080810E00053
:1028B0000F10202020100F0008F808080808F0006A
:1028C000203F210101010000E01008080810E0008D
:1028D0000F18242438504F0008F888888888700022
:1028E000203F2000030C30200070880808083800C2
:1028F0000038202121221C00180808F808081800B8
:102900000000203F2000000008F808000008F80838
:10291000001F202020201F000878880000C83808E9
:10292000000007380E010000F80800F80008F80061
:10293000033C0700073C03000818688080681808FB
:1029400020302C03032C30200838C800C838080079
:102950000000203F2000000010080808C8380800C8
:102960002038262120201800000000FE020202006C
:102970000000007F40404000000C30C0000000001C
:10298000000000010638C00000020202FE00000044
:10299000004040407F0000000000040202020400EA
:1029A0000000000000000000000000000000000027
:1029B000808080808080808000020204000000000F
:1029C0000000000000000000000080808080000007
:1029D0000019242222223F2008F8008080000000F5
:1029E000003F112020110E000000008080800000B8
:1029F000000E112020201100000000808088F800C7
:102A0000000E112020103F200000808080800000F8
:102A1000001F222222221300008080F0888888185C
:102A20000020203F20200000000080808080800067
:102A3000006B94949493600008F8008080800000FC
:102A4000203F210000203F200080989800000000D7
:102A50000020203F20200000000000809898000007
:102A600000C08080807F000008F800008080800027
:102A7000203F24022D302000000808F8000000004C
:102A80000020203F20200000808080808080800007
:102A9000203F20003F20003F808000808080000099
:102AA000203F210000203F20000080808080000027
:102AB000001F202020201F00808000808000000058
:102AC00080FFA12020110E00000000808080800087
:102AD000000E112020A0FF80808080008080800078
:102AE00020203F21200001000000808080808000A5
:102AF0000033242424241900008080E0808000001A
:102B00000000001F20200000808000000080800066
:102B1000001F202020103F208080800000808080C7
:102B200000010E3008060100808000800080808057
:102B30000F300C030C300F0000808000808080007C
:102B40000020312E0E3120008080800000808080A7
:102B500080818E7018060100008080808080800057
:102B60000021302C2221300000000000807C020275
:102B700000000000003F404000000000FF00000097
:102B800000000000FF0000000002027C8000000046
:102B90000040403F00000000000601010202040462
:102BA0000000000000000000010202030405060707
:102BB00008090A0B0C0D0E0F101000000000000099
:102BC00000000102030406070809000000000102DA
:102BD00003040000F42B000800000020182400006B
:102BE00086070008B0320008182400207004000096
:102BF000D4190008012D0C304020200800040808DA
:102C000020204045804040800A2D01000101000144
:102C10000100010D33E0380E0B000808000B0E38E0
:102C2000E02D40FF0100207C848286847C200431DA
:102C300001FF509581DFE080053080E0DF810014E6
:102C4000361E0F040603023AFAE2E3FE3A020306D6
:102C5000040F1E1003BE03033580C0C0800B2D106F
:102C60002844024001410244280D33E0380E0B098C
:102C7000000809030E38E02DA0FF010020F884842D
:102C80000484F820043101FF405402FFC0530101C5
:102C9000042FE0BF01001535101E0B0D050706724D
:102CA000FAE2C2FA3A0207050D0F1C1005BE010F29
:102CB0000701738080062F80400040802EC0701C6A
:102CC0001613111013161C74CA09072B08000800EC
:102CD000090A2DA0FE030040F808080C08F840047B
:102CE0003103FE403402BFC0460101030101042F3D
:102CF000C0BF02001535203C1E090D0704F4F4C4C2
:102D000084F4F4040E0B091E3C2005BE073F1F0788
:102D1000033A808000162AC0701C061301110316A6
:102D20001870C04010100800104040802D20FE0395
:102D30000040F018080818F0400A2B03FE42020079
:102D40000202000234057FC03701030202030104BE
:102D50002FC07F0200153540381E1B0B0E0CE4F40B
:102D60008484F4EC0C0E0B1B163C2005BE031F1FC5
:102D700003033A80800D33C0701C16131110131614
:102D80001C70C02DA0FE030040F808080C08F84095
:102D90000B2A03FEC4028200840850203402BFC004
:102DA000460101030101042FC0BF02001535203C7C
:102DB0001E090D070474F4C4C4F474040E0B091E38
:102DC0003C2005BD01070701053980C0C0800D33D7
:102DD000E0380E0B09000809030E38E02DA0FF01B2
:102DE0000020F884840484F820072E01FF908000DE
:102DF000805402FFC05301010B28E0BF11100010E6
:102E000011021408001535101E0B0D05070672FA85
:102E1000E2C2FA3A0207050D0F1C1005BD010F07AB
:102E2000010539804040800D33E0380E0B0008006A
:102E3000080B0E38E02D40FF0100207C8482868440
:102E40007C20043101FF509581DFE0800B2A80E077
:102E5000FFA10010202080800019301E0F040603FF
:102E6000027AFAE2C3FA7A020306040F1E1400047F
:102E700004000105AD031F0F033FA0101004020062
:102E800001010102041810A0052E80C0C0802B0192
:102E90000100010001000100010D33E1390E0B09B1
:102EA0000008090B0E38E02DA0FF010020F88484F3
:102EB0000484F820043101FF405402FFE053010173
:102EC000042FE0BF01001A30101E0F0D0507027A13
:102ED000FAE2C2FA3A0247A51D0F1C24040810A00A
:102EE0004065010F070106A701000100018780402E
:102EF00040404080032E80800019332844424140E6
:102F000040404040404142C4781C16131110131633
:102F10001C70C02DA0FE030040F808080C08F84003
:102F2000043103FE803405BFC046010103010104E2
:102F30002FC0FF02001535203C1F090D0F0474F44B
:102F4000C4C4F474040F0B091E3C2045010707019B
:102F50000AB2282402212101222428032F8080364E
:102F6000808020101000112910106080C070180E91
:102F700013011103161870C02E0F0010101010103E
:102F8000101010B0FE030D3140F018080818F04082
:102F90000003FE403405FFC03701030202030104B1
:102FA0002FC07F0500153540381E1B0B0E0CECF4AE
:102FB00084C4F4EC0C0E0B1B1E382065071F1F0386
:102FC000063A40402000400B71050908000808003F
:102FD000090502033A80800D29C0701C16131110D8
:102FE00013161C70C02E40202008040202020004A8
:102FF000A8FE030D2740F808080C08F8400003FE5F
:10300000409303023406BFC0460101030101042FAF
:10301000C0BF02001535203C1E090D0704F4F4C49E
:1030200084F4F4040E0B091E3C2005BD073F1F0766
:10303000053980C0C0800D2EE0380E0B090008094C
:10304000030E38E0298080808000A0FF010D27203A
:10305000F884840484F8200001FF405E7088848234
:1030600001808080008183BFE0530101042FE0BF15
:1030700001001535101E0B0D05070672FAE2C2FAA3
:103080003A0207050D0F1C1005BD010F0701053899
:10309000804040800E3380E0380E0B000808010BA2
:1030A0000E38E02D50FF0100207C848686847C2031
:1030B000042A01FF509CC0202010002020C1DFE026
:1030C00080052780F0DF81001D361A212120202075
:1030D0002020203E2F24061F023AFEE2E3FE3A02A1
:1030E0000306040F1E1003BE0303053980C0C08011
:1030F0000D33E0380E0B09000809030E38E02DA04F
:10310000FF010020F884840484F820043101FF408A
:103110005402FFC05301010427E0BF01001D2580B8
:1031200040401008000404141C1F6D4587027AFA01
:10313000E2C2FA3A0207050D0F1C10A40204043380
:10314000040605BE010F0701033A80800D33C070ED
:103150001C1613111013161C70C02DA0FE03004086
:10316000F808080C08F840043103FE403402BFC0E0
:10317000460101030101042FC0BF02001525203CB8
:103180001E090D0704F4F4C484F4F4040E0B091EA4
:103190003C203FA0100804020101010102040810B4
:1031A000E0052E073F1F070D850101000101010108
:1031B0000001010101033A80800D33C0701C061329
:1031C000011103161870C02D20FE030040F01808EE
:1031D0000818F040043103FE4034057FC037010376
:1031E00002020301042FC07F0500153540381E1B65
:1031F0000B0E0CE4F4C484F4EC0C0E0B1B163C20F8
:1032000005BE031F1F03033A80800D33C0701C16D8
:1032100013111013161C70C02DA0FE030040F808F7
:10322000080C08F840043103FE403402BFC04601D8
:1032300001030101042FC0BF02001535203C1E0907
:103240000D070474F4C4C4F474040E0B091E3C206E
:1032500005BD01070701053980C0C0800D33E03886
:103260000E0B010808010B0E38E02DA0FF01002015
:10327000F884840484F820043101FF405402FFC024
:10328000530101042FE0DF01001535101E0B0C0562
:10329000070672FAE2C2FA3A0207040D0F1C100583
:1032A0005F010F07014201921014127A0000000022
:04000005080000ED02
:00000001FF
